{"abi":[{"type":"constructor","inputs":[{"name":"_verifier","type":"address","internalType":"address"},{"name":"_feeManager","type":"address","internalType":"address"}],"stateMutability":"nonpayable"},{"type":"function","name":"FEE_BPS","inputs":[],"outputs":[{"name":"","type":"uint256","internalType":"uint256"}],"stateMutability":"view"},{"type":"function","name":"cancelIntent","inputs":[{"name":"intentHash","type":"bytes32","internalType":"bytes32"}],"outputs":[],"stateMutability":"nonpayable"},{"type":"function","name":"dummy","inputs":[],"outputs":[{"name":"","type":"bool","internalType":"bool"}],"stateMutability":"pure"},{"type":"function","name":"feeManager","inputs":[],"outputs":[{"name":"","type":"address","internalType":"contract IFeeManager"}],"stateMutability":"view"},{"type":"function","name":"fulfillIntent","inputs":[{"name":"fulfillment","type":"tuple","internalType":"struct Fulfillment","components":[{"name":"intentHash","type":"bytes32","internalType":"bytes32"},{"name":"executionData","type":"bytes","internalType":"bytes"},{"name":"proof","type":"bytes","internalType":"bytes"},{"name":"solver","type":"address","internalType":"address"}]}],"outputs":[],"stateMutability":"nonpayable"},{"type":"function","name":"getIntentStatus","inputs":[{"name":"intentHash","type":"bytes32","internalType":"bytes32"}],"outputs":[{"name":"","type":"uint8","internalType":"enum IntentStatus"}],"stateMutability":"view"},{"type":"function","name":"intentSolvers","inputs":[{"name":"","type":"bytes32","internalType":"bytes32"}],"outputs":[{"name":"","type":"address","internalType":"address"}],"stateMutability":"view"},{"type":"function","name":"intentStatuses","inputs":[{"name":"","type":"bytes32","internalType":"bytes32"}],"outputs":[{"name":"","type":"uint8","internalType":"enum IntentStatus"}],"stateMutability":"view"},{"type":"function","name":"intents","inputs":[{"name":"","type":"bytes32","internalType":"bytes32"}],"outputs":[{"name":"encryptedData","type":"bytes","internalType":"bytes"},{"name":"signature","type":"bytes","internalType":"bytes"},{"name":"nonce","type":"uint256","internalType":"uint256"},{"name":"deadline","type":"uint256","internalType":"uint256"},{"name":"user","type":"address","internalType":"address"}],"stateMutability":"view"},{"type":"function","name":"owner","inputs":[],"outputs":[{"name":"","type":"address","internalType":"address"}],"stateMutability":"view"},{"type":"function","name":"pause","inputs":[],"outputs":[],"stateMutability":"nonpayable"},{"type":"function","name":"renounceOwnership","inputs":[],"outputs":[],"stateMutability":"nonpayable"},{"type":"function","name":"submitIntent","inputs":[{"name":"intent","type":"tuple","internalType":"struct Intent","components":[{"name":"encryptedData","type":"bytes","internalType":"bytes"},{"name":"signature","type":"bytes","internalType":"bytes"},{"name":"nonce","type":"uint256","internalType":"uint256"},{"name":"deadline","type":"uint256","internalType":"uint256"},{"name":"user","type":"address","internalType":"address"}]}],"outputs":[{"name":"intentHash","type":"bytes32","internalType":"bytes32"}],"stateMutability":"nonpayable"},{"type":"function","name":"transferOwnership","inputs":[{"name":"newOwner","type":"address","internalType":"address"}],"outputs":[],"stateMutability":"nonpayable"},{"type":"function","name":"unpause","inputs":[],"outputs":[],"stateMutability":"nonpayable"},{"type":"function","name":"verifier","inputs":[],"outputs":[{"name":"","type":"address","internalType":"contract IIntentVerifier"}],"stateMutability":"view"},{"type":"event","name":"IntentCancelled","inputs":[{"name":"intentHash","type":"bytes32","indexed":true,"internalType":"bytes32"}],"anonymous":false},{"type":"event","name":"IntentExpired","inputs":[{"name":"intentHash","type":"bytes32","indexed":true,"internalType":"bytes32"}],"anonymous":false},{"type":"event","name":"IntentFulfilled","inputs":[{"name":"intentHash","type":"bytes32","indexed":true,"internalType":"bytes32"},{"name":"solver","type":"address","indexed":true,"internalType":"address"},{"name":"fee","type":"uint256","indexed":false,"internalType":"uint256"}],"anonymous":false},{"type":"event","name":"IntentSubmitted","inputs":[{"name":"intentHash","type":"bytes32","indexed":true,"internalType":"bytes32"},{"name":"user","type":"address","indexed":true,"internalType":"address"},{"name":"encryptedData","type":"bytes","indexed":false,"internalType":"bytes"}],"anonymous":false},{"type":"event","name":"OwnershipTransferred","inputs":[{"name":"previousOwner","type":"address","indexed":true,"internalType":"address"},{"name":"newOwner","type":"address","indexed":true,"internalType":"address"}],"anonymous":false},{"type":"error","name":"OwnableInvalidOwner","inputs":[{"name":"owner","type":"address","internalType":"address"}]},{"type":"error","name":"OwnableUnauthorizedAccount","inputs":[{"name":"account","type":"address","internalType":"address"}]},{"type":"error","name":"ReentrancyGuardReentrantCall","inputs":[]}],"bytecode":{"object":"0x60c060405234801561000f575f80fd5b5060405161180b38038061180b83398101604081905261002e91610102565b338061005357604051631e4fbdf760e01b81525f600482015260240160405180910390fd5b61005c81610098565b5060017f9b779b17422d0df92223018b32b4d1fa46e071723d6817e2486d003becc55f00556001600160a01b039182166080521660a052610133565b5f80546001600160a01b038381166001600160a01b0319831681178455604051919092169283917f8be0079c531659141344cd1fd0a4f28419497f9722a3daafe3b4186f6b6457e09190a35050565b80516001600160a01b03811681146100fd575f80fd5b919050565b5f8060408385031215610113575f80fd5b61011c836100e7565b915061012a602084016100e7565b90509250929050565b60805160a0516116946101775f395f81816102200152818161070801526107f201525f818161013c01528181610322015281816103df015261094901526116945ff3fe608060405234801561000f575f80fd5b50600436106100fb575f3560e01c80638456cb5911610093578063d0fb020311610063578063d0fb02031461021b578063d55f960d14610242578063e38a2a0f14610255578063f2fde38b1461027d575f80fd5b80638456cb59146101855780638da5cb5b146101de5780639021578a146101ee578063bf333f2c14610212575f80fd5b80635834b17f116100ce5780635834b17f1461018f57806368542c7d146101a2578063715018a6146101c3578063837f43f7146101cb575f80fd5b80632862d878146100ff5780632b7ac3f31461013757806332e43a11146101765780633f4ba83a14610185575b5f80fd5b61012161010d366004611092565b60016020525f908152604090205460ff1681565b60405161012e91906110bd565b60405180910390f35b61015e7f000000000000000000000000000000000000000000000000000000000000000081565b6040516001600160a01b03909116815260200161012e565b6040516001815260200161012e565b61018d610290565b005b61018d61019d3660046110e3565b61029a565b6101b56101b0366004611121565b6108ec565b60405190815260200161012e565b61018d610b20565b6101216101d9366004611092565b610b31565b5f546001600160a01b031661015e565b6102016101fc366004611092565b610b85565b60405161012e959493929190611186565b6101b56103e881565b61015e7f000000000000000000000000000000000000000000000000000000000000000081565b61018d610250366004611092565b610cc9565b61015e610263366004611092565b60036020525f90815260409020546001600160a01b031681565b61018d61028b3660046111e5565b610f60565b610298610f9a565b565b6102a2610fc6565b80355f8181526001602052604081205460ff1660038111156102c6576102c66110a9565b1461030d5760405162461bcd60e51b8152602060048201526012602482015271496e74656e74206e6f742070656e64696e6760701b60448201526064015b60405180910390fd5b60405163c03b319360e01b81523360048201527f00000000000000000000000000000000000000000000000000000000000000006001600160a01b03169063c03b319390602401602060405180830381865afa15801561036f573d5f803e3d5ffd5b505050506040513d601f19601f820116820180604052508101906103939190611200565b6103d55760405162461bcd60e51b81526020600482015260136024820152722ab730baba3437b934bd32b21039b7b63b32b960691b6044820152606401610304565b6001600160a01b037f000000000000000000000000000000000000000000000000000000000000000016634e2f3c52610411604085018561121f565b8461041f602088018861121f565b6040518663ffffffff1660e01b815260040161043f959493929190611291565b602060405180830381865afa15801561045a573d5f803e3d5ffd5b505050506040513d601f19601f8201168201806040525081019061047e9190611200565b6104ba5760405162461bcd60e51b815260206004820152600d60248201526c24b73b30b634b210383937b7b360991b6044820152606401610304565b5f81815260026020526040808220815160a081019092528054829082906104e0906112c9565b80601f016020809104026020016040519081016040528092919081815260200182805461050c906112c9565b80156105575780601f1061052e57610100808354040283529160200191610557565b820191905f5260205f20905b81548152906001019060200180831161053a57829003601f168201915b50505050508152602001600182018054610570906112c9565b80601f016020809104026020016040519081016040528092919081815260200182805461059c906112c9565b80156105e75780601f106105be576101008083540402835291602001916105e7565b820191905f5260205f20905b8154815290600101906020018083116105ca57829003601f168201915b505050918352505060028201546020820152600382015460408201526004909101546001600160a01b031660609182015281015190915042111561065e5760405162461bcd60e51b815260206004820152600e60248201526d125b9d195b9d08195e1c1a5c995960921b6044820152606401610304565b5f3061066d602086018661121f565b60405161067b929190611301565b5f604051808303815f865af19150503d805f81146106b4576040519150601f19603f3d011682016040523d82523d5f602084013e6106b9565b606091505b50509050806106fd5760405162461bcd60e51b815260206004820152601060248201526f115e1958dd5d1a5bdb8819985a5b195960821b6044820152606401610304565b5f6001600160a01b037f0000000000000000000000000000000000000000000000000000000000000000166399a5d74761077661073d602089018961121f565b8080601f0160208091040260200160405190810160405280939291908181526020018383808284375f92019190915250610ff492505050565b6040518263ffffffff1660e01b815260040161079491815260200190565b602060405180830381865afa1580156107af573d5f803e3d5ffd5b505050506040513d601f19601f820116820180604052508101906107d39190611310565b6040516348fef59560e01b8152336004820152602481018290529091507f00000000000000000000000000000000000000000000000000000000000000006001600160a01b0316906348fef595906044015f604051808303815f87803b15801561083b575f80fd5b505af115801561084d573d5f803e3d5ffd5b5050505f858152600160208181526040808420805460ff1916909317909255600381529181902080546001600160a01b03191633908117909155905184815290925086917fbda9294d48d13a800af71a56f22ca4a914080822f8a8f45dc2662c641ef0776c910160405180910390a3505050506108e960017f9b779b17422d0df92223018b32b4d1fa46e071723d6817e2486d003becc55f0055565b50565b5f81606001354211156109325760405162461bcd60e51b815260206004820152600e60248201526d125b9d195b9d08195e1c1a5c995960921b6044820152606401610304565b60405163f413e71560e01b81526001600160a01b037f0000000000000000000000000000000000000000000000000000000000000000169063f413e7159061097e908590600401611369565b602060405180830381865afa158015610999573d5f803e3d5ffd5b505050506040513d601f19601f820116820180604052508101906109bd9190611200565b6109fd5760405162461bcd60e51b8152602060048201526011602482015270496e76616c6964207369676e617475726560781b6044820152606401610304565b81604051602001610a0e9190611369565b60408051601f19818403018152919052805160209091012090505f808281526001602052604090205460ff166003811115610a4b57610a4b6110a9565b14610a905760405162461bcd60e51b8152602060048201526015602482015274496e74656e7420616c72656164792065786973747360581b6044820152606401610304565b5f8181526002602052604090208290610aa98282611519565b50505f818152600160205260409020805460ff19169055610ad060a08301608084016111e5565b6001600160a01b0316817fa3e538719ed16ba17588e2b6b03d7211c695990b9467f9a9b8efaecea5cd652e610b05858061121f565b604051610b13929190611643565b60405180910390a3919050565b610b28610f9a565b6102985f611001565b5f8181526001602052604081205460ff1681816003811115610b5557610b556110a9565b148015610b7157505f8381526002602052604090206003015442115b15610b7f5750600292915050565b92915050565b60026020525f9081526040902080548190610b9f906112c9565b80601f0160208091040260200160405190810160405280929190818152602001828054610bcb906112c9565b8015610c165780601f10610bed57610100808354040283529160200191610c16565b820191905f5260205f20905b815481529060010190602001808311610bf957829003601f168201915b505050505090806001018054610c2b906112c9565b80601f0160208091040260200160405190810160405280929190818152602001828054610c57906112c9565b8015610ca25780601f10610c7957610100808354040283529160200191610ca2565b820191905f5260205f20905b815481529060010190602001808311610c8557829003601f168201915b5050505060028301546003840154600490940154929390929091506001600160a01b031685565b5f81815260026020526040808220815160a08101909252805482908290610cef906112c9565b80601f0160208091040260200160405190810160405280929190818152602001828054610d1b906112c9565b8015610d665780601f10610d3d57610100808354040283529160200191610d66565b820191905f5260205f20905b815481529060010190602001808311610d4957829003601f168201915b50505050508152602001600182018054610d7f906112c9565b80601f0160208091040260200160405190810160405280929190818152602001828054610dab906112c9565b8015610df65780601f10610dcd57610100808354040283529160200191610df6565b820191905f5260205f20905b815481529060010190602001808311610dd957829003601f168201915b505050918352505060028201546020820152600382015460408201526004909101546001600160a01b039081166060909201919091526080820151919250163314610e765760405162461bcd60e51b815260206004820152601060248201526f2737ba1034b73a32b73a1037bbb732b960811b6044820152606401610304565b5f8281526001602052604081205460ff166003811115610e9857610e986110a9565b14610ed55760405162461bcd60e51b815260206004820152600d60248201526c10d85b9b9bdd0818d85b98d95b609a1b6044820152606401610304565b80606001514211610f1d5760405162461bcd60e51b8152602060048201526012602482015271125b9d195b9d081b9bdd08195e1c1a5c995960721b6044820152606401610304565b5f82815260016020526040808220805460ff191660031790555183917fc08eb64db16a39d2848960af04e3f16fb404d9d436a9f0e9d7d0d4854715c9dc91a25050565b610f68610f9a565b6001600160a01b038116610f9157604051631e4fbdf760e01b81525f6004820152602401610304565b6108e981611001565b5f546001600160a01b031633146102985760405163118cdaa760e01b8152336004820152602401610304565b610fce611050565b60027f9b779b17422d0df92223018b32b4d1fa46e071723d6817e2486d003becc55f0055565b50670de0b6b3a764000090565b5f80546001600160a01b038381166001600160a01b0319831681178455604051919092169283917f8be0079c531659141344cd1fd0a4f28419497f9722a3daafe3b4186f6b6457e09190a35050565b7f9b779b17422d0df92223018b32b4d1fa46e071723d6817e2486d003becc55f005460020361029857604051633ee5aeb560e01b815260040160405180910390fd5b5f602082840312156110a2575f80fd5b5035919050565b634e487b7160e01b5f52602160045260245ffd5b60208101600483106110dd57634e487b7160e01b5f52602160045260245ffd5b91905290565b5f602082840312156110f3575f80fd5b813567ffffffffffffffff811115611109575f80fd5b82016080818503121561111a575f80fd5b9392505050565b5f60208284031215611131575f80fd5b813567ffffffffffffffff811115611147575f80fd5b820160a0818503121561111a575f80fd5b5f81518084528060208401602086015e5f602082860101526020601f19601f83011685010191505092915050565b60a081525f61119860a0830188611158565b82810360208401526111aa8188611158565b6040840196909652505060608101929092526001600160a01b031660809091015292915050565b6001600160a01b03811681146108e9575f80fd5b5f602082840312156111f5575f80fd5b813561111a816111d1565b5f60208284031215611210575f80fd5b8151801515811461111a575f80fd5b5f808335601e19843603018112611234575f80fd5b83018035915067ffffffffffffffff82111561124e575f80fd5b602001915036819003821315611262575f80fd5b9250929050565b81835281816020850137505f828201602090810191909152601f909101601f19169091010190565b606081525f6112a4606083018789611269565b85602084015282810360408401526112bd818587611269565b98975050505050505050565b600181811c908216806112dd57607f821691505b6020821081036112fb57634e487b7160e01b5f52602260045260245ffd5b50919050565b818382375f9101908152919050565b5f60208284031215611320575f80fd5b5051919050565b5f808335601e1984360301811261133c575f80fd5b830160208101925035905067ffffffffffffffff81111561135b575f80fd5b803603821315611262575f80fd5b602081525f6113788384611327565b60a0602085015261138d60c085018284611269565b91505061139d6020850185611327565b848303601f190160408601526113b4838284611269565b92505050604084013560608401526060840135608084015260808401356113da816111d1565b6001600160a01b031660a0939093019290925250919050565b634e487b7160e01b5f52604160045260245ffd5b601f82111561144e57805f5260205f20601f840160051c8101602085101561142c5750805b601f840160051c820191505b8181101561144b575f8155600101611438565b50505b505050565b67ffffffffffffffff83111561146b5761146b6113f3565b61147f8361147983546112c9565b83611407565b5f601f8411600181146114b0575f85156114995750838201355b5f19600387901b1c1916600186901b17835561144b565b5f83815260208120601f198716915b828110156114df57868501358255602094850194600190920191016114bf565b50868210156114fb575f1960f88860031b161c19848701351681555b505060018560011b0183555050505050565b5f8135610b7f816111d1565b611523828361121f565b67ffffffffffffffff81111561153b5761153b6113f3565b61154f8161154985546112c9565b85611407565b5f601f821160018114611580575f83156115695750838201355b5f19600385901b1c1916600184901b1785556115d7565b5f85815260208120601f198516915b828110156115af578685013582556020948501946001909201910161158f565b50848210156115cb575f1960f88660031b161c19848701351681555b505060018360011b0185555b505050506115e8602083018361121f565b6115f6818360018601611453565b5050604082013560028201556060820135600382015561163f61161b6080840161150d565b6004830180546001600160a01b0319166001600160a01b0392909216919091179055565b5050565b602081525f611656602083018486611269565b94935050505056fea2646970667358221220b383cac4cff7bd366e2b817df6fec68d4a874976e9ef7d2c6fceb683e348dd9364736f6c63430008190033","linkReferences":{}},"methodIdentifiers":{"FEE_BPS()":"bf333f2c","cancelIntent(bytes32)":"d55f960d","dummy()":"32e43a11","feeManager()":"d0fb0203","fulfillIntent((bytes32,bytes,bytes,address))":"5834b17f","getIntentStatus(bytes32)":"837f43f7","intentSolvers(bytes32)":"e38a2a0f","intentStatuses(bytes32)":"2862d878","intents(bytes32)":"9021578a","owner()":"8da5cb5b","pause()":"8456cb59","renounceOwnership()":"715018a6","submitIntent((bytes,bytes,uint256,uint256,address))":"68542c7d","transferOwnership(address)":"f2fde38b","unpause()":"3f4ba83a","verifier()":"2b7ac3f3"},"id":27}