{"abi":[{"type":"receive","stateMutability":"payable"},{"type":"function","name":"FEE_BPS","inputs":[],"outputs":[{"name":"","type":"uint256","internalType":"uint256"}],"stateMutability":"view"},{"type":"function","name":"SOLVER_SHARE_BPS","inputs":[],"outputs":[{"name":"","type":"uint256","internalType":"uint256"}],"stateMutability":"view"},{"type":"function","name":"TREASURY_SHARE_BPS","inputs":[],"outputs":[{"name":"","type":"uint256","internalType":"uint256"}],"stateMutability":"view"},{"type":"function","name":"calculateFee","inputs":[{"name":"amount","type":"uint256","internalType":"uint256"}],"outputs":[{"name":"","type":"uint256","internalType":"uint256"}],"stateMutability":"pure"},{"type":"function","name":"distributeFees","inputs":[{"name":"solver","type":"address","internalType":"address"},{"name":"totalFee","type":"uint256","internalType":"uint256"}],"outputs":[],"stateMutability":"nonpayable"},{"type":"function","name":"getTreasuryBalance","inputs":[],"outputs":[{"name":"","type":"uint256","internalType":"uint256"}],"stateMutability":"view"},{"type":"function","name":"owner","inputs":[],"outputs":[{"name":"","type":"address","internalType":"address"}],"stateMutability":"view"},{"type":"function","name":"renounceOwnership","inputs":[],"outputs":[],"stateMutability":"nonpayable"},{"type":"function","name":"transferOwnership","inputs":[{"name":"newOwner","type":"address","internalType":"address"}],"outputs":[],"stateMutability":"nonpayable"},{"type":"function","name":"treasuryBalance","inputs":[],"outputs":[{"name":"","type":"uint256","internalType":"uint256"}],"stateMutability":"view"},{"type":"function","name":"withdrawTreasury","inputs":[],"outputs":[],"stateMutability":"nonpayable"},{"type":"event","name":"FeesDistributed","inputs":[{"name":"solver","type":"address","indexed":true,"internalType":"address"},{"name":"solverFee","type":"uint256","indexed":false,"internalType":"uint256"},{"name":"treasuryFee","type":"uint256","indexed":false,"internalType":"uint256"}],"anonymous":false},{"type":"event","name":"OwnershipTransferred","inputs":[{"name":"previousOwner","type":"address","indexed":true,"internalType":"address"},{"name":"newOwner","type":"address","indexed":true,"internalType":"address"}],"anonymous":false},{"type":"event","name":"TreasuryWithdrawn","inputs":[{"name":"to","type":"address","indexed":true,"internalType":"address"},{"name":"amount","type":"uint256","indexed":false,"internalType":"uint256"}],"anonymous":false},{"type":"error","name":"OwnableInvalidOwner","inputs":[{"name":"owner","type":"address","internalType":"address"}]},{"type":"error","name":"OwnableUnauthorizedAccount","inputs":[{"name":"account","type":"address","internalType":"address"}]}],"bytecode":{"object":"0x6080604052348015600e575f80fd5b503380603357604051631e4fbdf760e01b81525f600482015260240160405180910390fd5b603a81603f565b50608e565b5f80546001600160a01b038381166001600160a01b0319831681178455604051919092169283917f8be0079c531659141344cd1fd0a4f28419497f9722a3daafe3b4186f6b6457e09190a35050565b61056c8061009b5f395ff3fe60806040526004361061009d575f3560e01c80638da5cb5b116100625780638da5cb5b1461012e57806399a5d747146101545780639b5655dc14610173578063ab090a5e146100e6578063bf333f2c14610187578063f2fde38b1461019c575f80fd5b8063166bab95146100a8578063313dab20146100be578063389728b6146100e657806348fef595146100fb578063715018a61461011a575f80fd5b366100a457005b5f80fd5b3480156100b3575f80fd5b506100bc6101bb565b005b3480156100c9575f80fd5b506100d360015481565b6040519081526020015b60405180910390f35b3480156100f1575f80fd5b506100d36101f481565b348015610106575f80fd5b506100bc61011536600461047a565b6102a7565b348015610125575f80fd5b506100bc610374565b348015610139575f80fd5b505f546040516001600160a01b0390911681526020016100dd565b34801561015f575f80fd5b506100d361016e3660046104a2565b610387565b34801561017e575f80fd5b506001546100d3565b348015610192575f80fd5b506100d36103e881565b3480156101a7575f80fd5b506100bc6101b63660046104b9565b6103a7565b6101c36103e4565b6001548061020c5760405162461bcd60e51b81526020600482015260116024820152704e6f2074726561737572792066756e647360781b60448201526064015b60405180910390fd5b5f6001556102215f546001600160a01b031690565b6001600160a01b03166108fc8290811502906040515f60405180830381858888f19350505050158015610256573d5f803e3d5ffd5b505f546001600160a01b03166001600160a01b03167f41fdd680478135993bc53fb2ffaf9560951b57ef62ff6badd02b61e018b4f17f8260405161029c91815260200190565b60405180910390a250565b5f6127106102b76101f4846104ed565b6102c19190610504565b90505f6127106102d36101f4856104ed565b6102dd9190610504565b6040519091506001600160a01b0385169083156108fc029084905f818181858888f19350505050158015610313573d5f803e3d5ffd5b508060015f8282546103259190610523565b909155505060408051838152602081018390526001600160a01b038616917f85da6ab72d2b48932522aea80adb8ca4fab6cdeb87bc2e7f6c03fd78d3b2100e910160405180910390a250505050565b61037c6103e4565b6103855f610410565b565b5f6127106103976103e8846104ed565b6103a19190610504565b92915050565b6103af6103e4565b6001600160a01b0381166103d857604051631e4fbdf760e01b81525f6004820152602401610203565b6103e181610410565b50565b5f546001600160a01b031633146103855760405163118cdaa760e01b8152336004820152602401610203565b5f80546001600160a01b038381166001600160a01b0319831681178455604051919092169283917f8be0079c531659141344cd1fd0a4f28419497f9722a3daafe3b4186f6b6457e09190a35050565b80356001600160a01b0381168114610475575f80fd5b919050565b5f806040838503121561048b575f80fd5b6104948361045f565b946020939093013593505050565b5f602082840312156104b2575f80fd5b5035919050565b5f602082840312156104c9575f80fd5b6104d28261045f565b9392505050565b634e487b7160e01b5f52601160045260245ffd5b80820281158282048414176103a1576103a16104d9565b5f8261051e57634e487b7160e01b5f52601260045260245ffd5b500490565b808201808211156103a1576103a16104d956fea26469706673582212207d86188c8c07a9d2e78a12d09705c4024700e830a7f6407dc727df6fd1d10ccf64736f6c63430008190033","linkReferences":{}},"methodIdentifiers":{"FEE_BPS()":"bf333f2c","SOLVER_SHARE_BPS()":"ab090a5e","TREASURY_SHARE_BPS()":"389728b6","calculateFee(uint256)":"99a5d747","distributeFees(address,uint256)":"48fef595","getTreasuryBalance()":"9b5655dc","owner()":"8da5cb5b","renounceOwnership()":"715018a6","transferOwnership(address)":"f2fde38b","treasuryBalance()":"313dab20","withdrawTreasury()":"166bab95"},"id":25}