{"abi":[{"type":"constructor","inputs":[{"name":"initialOwner","type":"address","internalType":"address"}],"stateMutability":"nonpayable"},{"type":"function","name":"addSolver","inputs":[{"name":"solver","type":"address","internalType":"address"}],"outputs":[],"stateMutability":"nonpayable"},{"type":"function","name":"authorizedSolvers","inputs":[{"name":"","type":"address","internalType":"address"}],"outputs":[{"name":"","type":"bool","internalType":"bool"}],"stateMutability":"view"},{"type":"function","name":"isValidSolver","inputs":[{"name":"","type":"address","internalType":"address"}],"outputs":[{"name":"","type":"bool","internalType":"bool"}],"stateMutability":"pure"},{"type":"function","name":"mockMode","inputs":[],"outputs":[{"name":"","type":"bool","internalType":"bool"}],"stateMutability":"view"},{"type":"function","name":"owner","inputs":[],"outputs":[{"name":"","type":"address","internalType":"address"}],"stateMutability":"view"},{"type":"function","name":"removeSolver","inputs":[{"name":"solver","type":"address","internalType":"address"}],"outputs":[],"stateMutability":"nonpayable"},{"type":"function","name":"renounceOwnership","inputs":[],"outputs":[],"stateMutability":"nonpayable"},{"type":"function","name":"transferOwnership","inputs":[{"name":"newOwner","type":"address","internalType":"address"}],"outputs":[],"stateMutability":"nonpayable"},{"type":"function","name":"verifyExecutionProof","inputs":[{"name":"proof","type":"bytes","internalType":"bytes"},{"name":"","type":"bytes32","internalType":"bytes32"},{"name":"","type":"bytes","internalType":"bytes"}],"outputs":[{"name":"","type":"bool","internalType":"bool"}],"stateMutability":"pure"},{"type":"function","name":"verifyIntentSignature","inputs":[{"name":"intent","type":"tuple","internalType":"struct Intent","components":[{"name":"encryptedData","type":"bytes","internalType":"bytes"},{"name":"signature","type":"bytes","internalType":"bytes"},{"name":"nonce","type":"uint256","internalType":"uint256"},{"name":"deadline","type":"uint256","internalType":"uint256"},{"name":"user","type":"address","internalType":"address"}]}],"outputs":[{"name":"","type":"bool","internalType":"bool"}],"stateMutability":"view"},{"type":"event","name":"OwnershipTransferred","inputs":[{"name":"previousOwner","type":"address","indexed":true,"internalType":"address"},{"name":"newOwner","type":"address","indexed":true,"internalType":"address"}],"anonymous":false},{"type":"error","name":"OwnableInvalidOwner","inputs":[{"name":"owner","type":"address","internalType":"address"}]},{"type":"error","name":"OwnableUnauthorizedAccount","inputs":[{"name":"account","type":"address","internalType":"address"}]}],"bytecode":{"object":"0x60806040526002805460ff1916600117905534801561001c575f80fd5b5060405161094338038061094383398101604081905261003b916100fe565b806001600160a01b03811661006957604051631e4fbdf760e01b81525f600482015260240160405180910390fd5b610072816100af565b50505f8052600160208190527fa6eef7e35abe7026729641147f7915573c7e97b47efa546f5f6e3230263bcb49805460ff1916909117905561012b565b5f80546001600160a01b038381166001600160a01b0319831681178455604051919092169283917f8be0079c531659141344cd1fd0a4f28419497f9722a3daafe3b4186f6b6457e09190a35050565b5f6020828403121561010e575f80fd5b81516001600160a01b0381168114610124575f80fd5b9392505050565b61080b806101385f395ff3fe608060405234801561000f575f80fd5b506004361061009b575f3560e01c80639672fb2e116100635780639672fb2e14610110578063c03b319314610132578063ec58f4b814610146578063f2fde38b14610159578063f413e7151461016c575f80fd5b80634e2f3c521461009f578063715018a6146100cc578063751222c9146100d65780638da5cb5b146100e35780638fd57b92146100fd575b5f80fd5b6100b76100ad366004610697565b5050501515919050565b60405190151581526020015b60405180910390f35b6100d461017f565b005b6002546100b79060ff1681565b5f546040516001600160a01b0390911681526020016100c3565b6100d461010b36600461070b565b610192565b6100b761011e36600461070b565b60016020525f908152604090205460ff1681565b6100b761014036600461070b565b50600190565b6100d461015436600461070b565b6101ba565b6100d461016736600461070b565b6101e8565b6100b761017a366004610738565b61022a565b6101876104c6565b6101905f6104f2565b565b61019a6104c6565b6001600160a01b03165f908152600160205260409020805460ff19169055565b6101c26104c6565b6001600160a01b03165f908152600160208190526040909120805460ff19169091179055565b6101f06104c6565b6001600160a01b03811661021e57604051631e4fbdf760e01b81525f60048201526024015b60405180910390fd5b610227816104f2565b50565b6002545f9060ff161561023f57506001919050565b604080518082018252600f81526e14da18591bddc8141c9bdd1bd8dbdb608a1b6020918201528151808301835260018152603160f81b9082015281517f8b73c3c69bb8fe3d512ecc4cf759cc79239f7b179b0ffacaa9a75d522b39400f818301527f28467358d0efd452d9203108da5d0abe9ed30c6dd89810d35fda3c6dda22bc92818401527fc89efdaa54c0f20c7adf612882df0950f5a951637e0307cdcb4c672f298b8bc660608201524660808201523060a0808301919091528351808303909101815260c090910190925281519101205f7f48adf17c905944f0a20681720edf904c34597863d75e0690d467e5c028c235c161033e858061076f565b60405161034c9291906107b2565b604051908190039020610362602087018761076f565b6040516103709291906107b2565b604051809103902086604001358760600135886080016020810190610395919061070b565b6040805160208101979097528601949094526060850192909252608084015260a08301526001600160a01b031660c082015260e0016040516020818303038152906040528051906020012090505f828260405160200161040c92919061190160f01b81526002810192909252602282015260420190565b6040516020818303038152906040528051906020012090505f80610475878060200190610439919061076f565b8080601f0160208091040260200160405190810160405280939291908181526020018383808284375f9201919091525087939250506105419050565b5090925090505f81600381111561048e5761048e6107c1565b1480156104bb57506104a660a088016080890161070b565b6001600160a01b0316826001600160a01b0316145b979650505050505050565b5f546001600160a01b031633146101905760405163118cdaa760e01b8152336004820152602401610215565b5f80546001600160a01b038381166001600160a01b0319831681178455604051919092169283917f8be0079c531659141344cd1fd0a4f28419497f9722a3daafe3b4186f6b6457e09190a35050565b5f805f8351604103610578576020840151604085015160608601515f1a61056a8882858561058a565b955095509550505050610583565b505081515f91506002905b9250925092565b5f80807f7fffffffffffffffffffffffffffffff5d576e7357a4501ddfe92f46681b20a08411156105c357505f91506003905082610648565b604080515f808252602082018084528a905260ff891692820192909252606081018790526080810186905260019060a0016020604051602081039080840390855afa158015610614573d5f803e3d5ffd5b5050604051601f1901519150506001600160a01b03811661063f57505f925060019150829050610648565b92505f91508190505b9450945094915050565b5f8083601f840112610662575f80fd5b50813567ffffffffffffffff811115610679575f80fd5b602083019150836020828501011115610690575f80fd5b9250929050565b5f805f805f606086880312156106ab575f80fd5b853567ffffffffffffffff808211156106c2575f80fd5b6106ce89838a01610652565b90975095506020880135945060408801359150808211156106ed575f80fd5b506106fa88828901610652565b969995985093965092949392505050565b5f6020828403121561071b575f80fd5b81356001600160a01b0381168114610731575f80fd5b9392505050565b5f60208284031215610748575f80fd5b813567ffffffffffffffff81111561075e575f80fd5b820160a08185031215610731575f80fd5b5f808335601e19843603018112610784575f80fd5b83018035915067ffffffffffffffff82111561079e575f80fd5b602001915036819003821315610690575f80fd5b818382375f9101908152919050565b634e487b7160e01b5f52602160045260245ffdfea26469706673582212207b23dc67e12b4e79ddf0f8415018466ee71aec675c935005c0d0f8524c88fe2864736f6c63430008190033","linkReferences":{}},"methodIdentifiers":{"addSolver(address)":"ec58f4b8","authorizedSolvers(address)":"9672fb2e","isValidSolver(address)":"c03b3193","mockMode()":"751222c9","owner()":"8da5cb5b","removeSolver(address)":"8fd57b92","renounceOwnership()":"715018a6","transferOwnership(address)":"f2fde38b","verifyExecutionProof(bytes,bytes32,bytes)":"4e2f3c52","verifyIntentSignature((bytes,bytes,uint256,uint256,address))":"f413e715"},"id":24}